:100000006F104027130000001300000013000000D1
:100010001300000013000000130000001300000094
:100020001300000013000000130000001300000084
:08003000130000007300100032
:100038000000000000000000A8020000AC02000060
:1000480000000000BA1100000000000000000000DD
:10005800BC110000BE1100000000000000000000FC
:10006800C011000000000000C211000000000000E4
:10007800C4110000C6110000C8110000CA11000018
:10008800CC110000CE110000D0110000D2110000E8
:10009800D4110000D6110000D8110000DA110000B8
:1000A800DC110000DE110000E0110000E211000088
:1000B800E4110000E6110000E8110000EA11000058
:1000C800EC110000EE110000F0110000F211000028
:1000D800F4110000F6110000F8110000FA110000F8
:1000E800FC110000FE1100000012000002120000C6
:1000F8000412000006120000081200000A12000094
:100108000C1200000E120000101200001212000063
:100118001412000016120000181200001A12000033
:100128001C1200001E120000201200002212000003
:100138002412000026120000281200002A120000D3
:100148002C1200002E120000AE1000003212000027
:100158003412000036120000381200003A12000073
:100168003C1200003E120000401200004212000043
:100178004412000046120000481200004A12000013
:100188004C1200004E1200005012000052120000E3
:100198005412000056120000581200005A120000B3
:1001A8005C1200005E120000601200006212000083
:1001B8006412000066120000681200006A12000053
:1001C8006C1200006E120000701200007212000023
:1001D8000000000000000000000000000000000017
:1001E8000000000000000000000000000000000007
:0801F8000000000000000000FF
:100200003D432A876373C3029377F700BDEFADE5E3
:10021000937606FF3D8ABA960CC34CC30CC74CC7F5
:100220004107E36BD7FE11E28280B306C3408A0622
:100230009702000096966780A6002307B700A306E2
:10024000B7002306B700A305B7002305B700A30432
:10025000B7002304B700A303B7002303B700A3022A
:10026000B7002302B700A301B7002301B700A30022
:10027000B7002300B700828093F5F50F93968500B1
:10028000D58D93960501D58D61B79396270097027A
:10029000000096968682E78086FA9680C1171D8FA9
:1002A0003E96E374C3F8A5B77300203001A013573E
:1002B0008500B70702602380E7001375F50F2380E0
:1002C000A7008280B707026083C70700411193F738
:1002D000F70FA307F1000345F1004101828035715A
:1002E0001306C0038145C80006CF22CD26CB4AC9DC
:1002F0004EC752C502C0130AC10002C202C4093768
:10030000714681455285ED3D9309810271468145D3
:100310004E85FD35854513050010EF1020548545A9
:1003200013058006EF106055B7140140F1770D44B6
:100330006149938737038A85138504402310F100B0
:100340004AC422C2EF1020283725014093070078C5
:100350008A85130505802310F1004AC422C2EF10DC
:10036000802685678A85138504402310F1004AC4DE
:1003700022C2EF104025930700082310F1008A8560
:10038000C147138504403EC422C2EF10C023930529
:10039000000813850440EF10602F85473EC6BD4717
:1003A0003ECA8567BED4C800916722D8BED8D2DCC9
:1003B000CEDE02C802CC02CE02D002D202D402D6D5
:1003C00002DA02DC02DE82C082C282C482C682C835
:1003D00082CA82CE82CC82D082D282D682DAEF10DA
:1003E000001185450145EF10201CFA406A44DA44AB
:1003F0004A49BA492A4A0D618280397122DC373470
:100400000140231CA100231AB100130504C04C08AD
:1004100006DE32C6231D0100231B0100EF10A04998
:100420003246930700063ED00C109147130504C0D6
:100430002312F1022313C10223150102EF10A0536E
:10044000130504C08545EF108061130504C0814584
:10045000EF108065130504C08545EF100063130598
:1004600004C08545EF10E05DF25062542161828046
:100470000565011185451305858006CEEF10E03F27
:1004800091672312F10037150140E1474C003EC649
:10049000130505C08D473EC4EF10E012130540065A
:1004A000EF106077130620039305F008130540064C
:1004B000A937F240056182802390A182B70700200E
:1004C0002398B7068280B70702601307A002A38FA4
:1004D000E7FE135785002380E7001375F50F23808F
:1004E000A700135786002380E7001376F60F2380BA
:1004F000C7001307B002A38FE7FE13D78500238040
:10050000E70093F5F50F2380B70013D7860023800B
:10051000E70093F6F60F2380D7001307C002A38FDE
:10052000E7FE8280411122C426C29306F00E935446
:1005300085001374F50F1306F00E8145014506C6BC
:1005400059371307000FB70602609307000FFD1716
:1005500023809600C20723808600C183EDFB7D17B0
:10056000420741837DF3B24022449244410182809C
:10057000411106C622C426C2E53D95333704026008
:100580009147A30FF4FE3D3B353B2D3B93140501F2
:10059000C180A204C2043D33C180458D931505017D
:1005A00037650000C1811305C551EF104076130572
:1005B0002003EF10406693076003A30FF4FE2300AF
:1005C00004001306A003A30FC4FE95472300F40004
:1005D000930720FBA30FF4FEB1462300D4002300B1
:1005E000D40023000400930730032300F400230009
:1005F000F400130770FBA30FE4FE230004001307AD
:10060000B0FBA30FE4FE1303F00323006400130701
:1006100000FCA30FE4FE1307C0022300E40013074D
:1006200020FCA30FE4FE05472300E400130730FC81
:10063000A30FE4FEB54823001401130740FCA30FE9
:10064000E4FE130700022300E400130760FCA30F7D
:10065000E4FE0D472300E400930500FDA30FB4FE64
:10066000930540FA2300B400930510FA2300B40068
:100670008155A30FB4FE4158230004012300E40078
:10068000A5452300B4002300E40041452300E40015
:100690009305D0022300A4002300B4001307300404
:1006A0002300E400230064002300F400230014016D
:1006B00039472300E4009304900223009400930838
:1006C0002003230014018558A30F14FF2300040105
:1006D0002300D4002300A4002300E4002300E4004E
:1006E00029472300E4002300B4002300F40093070B
:1006F00050042300F4002300C400D1472300F40079
:10070000E5472300F400930710032300F400930748
:1007100070032300F40093071002A30FF4FEC547F3
:10072000A30FF4FE13054006EF10E04E0145DD3B3C
:10073000371501409165130505C0EF00F074A30F54
:1007400094FEB240224492444101828093D8160024
:100750001308000FB308184163EFA8183308D840F6
:10076000636BB818797122D406D6130406FE26D21C
:100770004AD04ECE52CC56CA5AC85EC662C4414612
:100780001374F40F639AC6069386F500130675007A
:10079000C2064206C18241820D6A35331204814984
:1007A000130ACA61B70B0020C14AB3073401D297BC
:1007B00003C90700A14493178901E18763DB07029E
:1007C00003D50B07FD14060993F4F40FCD34137908
:1007D000F90FF5F08509E39A59FDB250225492546D
:1007E0000259F249624AD24A424BB24B224C45610D
:1007F000828003D50182F9B76146639BC606938662
:1008000075011306B500C2064206C18241826539F0
:10081000930700183304F402116A8144130B000398
:10082000130ACABF370C00200D8093F7F40FE3863C
:1008300064FB330794005297858B83490700914AE4
:1008400091E3A14A014993978901E18763DF07009A
:1008500003550C07050986091379F90F893C93F9AB
:10086000F90FE3922AFF8504C9B703D50182DDB7EA
:10087000130600026390C6069386F5011306F50081
:10088000C2064206C1824182156A35391A0481497D
:10089000130ACAD9B70B0020930A0004B387890052
:1008A000D29703C90700A14493178901E18763D058
:1008B000070203D50B07FD14060993F4F40FC53A9C
:1008C0001379F90FF5F08509E39A59FD39B703D586
:1008D0000182D5B72254B25092540259F249624A69
:1008E000D24A424BB24B224C376500001305855269
:1008F00045616F10C0418280557126DB4AD94ED7C1
:10090000AA84B2892E89130600088145080822DDD1
:10091000BAC1BEC306DF52D556D35AD15ECF368494
:10092000C2C5C6C7EFF0DF8D13F779FFC147630D6E
:10093000F700930700026389F90037650000CE8550
:1009400013054557EF10A03C9401228693054006FD
:10095000080836C6EF10605F13D719009307000F21
:10096000131B0701C16AB38BE740135B0B0100083F
:10097000338A3741938A0A808347040081EFFA5013
:100980006A54DA544A59BA592A5A9A5A0A5BFA4BA3
:100990006961828063F79B004E99420913590901EE
:1009A000814463762A015685B53E01498144034658
:1009B00004002685DA94CE86CA85C204413BC180F4
:1009C00005045DBF797185451305000406D622D460
:1009D000EF00906C85454145EF00306A8547231252
:1009E000F1008D473EC44C00E147371501403EC63B
:1009F000EF00703D89472312F1004C0093078004FB
:100A0000371501403EC6EF00103CF1673724004027
:100A1000938707203EC80C08B7070C001305048015
:100A20003ECC02CA231E0100EF10800A37050240A7
:100A3000854513050548EF00D0261305048085453C
:100A4000EF108016B250225445618280397185457D
:100A5000094506DE22DCEF00706037040240130512
:100A6000C446EF00D009B7270040938747803EC2B5
:100A7000938741803EC4C1473EC6930700083ECCE1
:100A80004C008D671305C4463ED402C802CA02CE8C
:100A900002D002D202D6EF00501D938741833EC49C
:100AA000930700403EC84C0093070002130504481A
:100AB00002C63ED2EF00701BF25062542161828068
:100AC000411122C4370402404AC02A891305C44692
:100AD00026C206C6AE84EF00501E15ED3705002075
:100AE0000905EF00101E1305C4468145EF00701B79
:100AF0001304C44623262401A6852285EF00B01BDB
:100B000022858545EF00F0190545B2402244924404
:100B10000249410182800145CDBF8145B307B5003F
:100B20008387070091E369BF8505C205C181FDB7D1
:100B3000011122CC2A84370502401305054806CE50
:100B40002EC6EF00901713070040098F83D621822D
:100B50004207418301456384E602B24593872182BF
:100B60000145138641839308F03F83D607006388CD
:100B7000E60013180501135808016366B800F24037
:100B8000624405618280B29683C606003308A400E1
:100B90002300D80083D607008506C206C18263E61B
:100BA000D8002390D7000505C9B723900700E5BFFB
:100BB0003705024041111305054806C6EF00F00F46
:100BC000930700403385A74003D721824205418126
:100BD0006368E500198DB240420541814101828080
:100BE000998F3E95CDBF011122CC26CA2E84AA84AE
:100BF0008545414506CEEF00304AC1474C003715C8
:100C000000402313F10023149100231281002315C7
:100C10000100EF00504A0546854537150040EF00BA
:100C20007065854537150040EF00306685453715FE
:100C30000040EF001061F2406244D24405618280BE
:100C4000011193076014231501002314F100894753
:100C50002305F1002800854706CE3EC6EF00B023ED
:100C6000F24005618280938741C303C73700054680
:100C70000507620761876345E600A381E70082807C
:100C800003C72700A38107009305B0030507620788
:100C9000618763C5E5002381E700828003C71700F1
:100CA0002381070005076207618763C5E500A3800C
:100CB000E7008280A380070083C741C35D478507A3
:100CC000E207E1876345F700238AF1C28280238A25
:100CD00001C22383C1808280130101AC232C815285
:100CE0000D64232A91528354845B130620068145A8
:100CF00013056100232E115223129100EFF04FD003
:100D00001306200681451305A10623149106EFF072
:100D10002FCF1306200681451305E10C2316910CF5
:100D20001304845BEFF0CFCDB76400001385445902
:100D3000ED336DDD1305401FEF00F06D953DAA8486
:100D4000630E0512835704001306E03F8145130527
:100D500021132318F112EFF0AFCAA685081AC93B78
:100D6000376500000C1A13050560EF00507AB7656F
:100D7000000093850561081AEF1040132A8493053B
:100D8000D5002946A810EF102010214693058401B4
:100D9000480023090106EF10200FB7650000938576
:100DA000C561081A23070100EF1040109305950054
:100DB000E801EF10400C93052002E801EF10000A53
:100DC0002300050037650000F4015000AC10130546
:100DD0004562EF00D0732945EF0070779305007EE0
:100DE0000145EFF06FEDB7660000B8109386C6605E
:100DF00061469305200301450136FD450145EFF0AD
:100E0000AFEBB7660000F8019386866361469305F1
:100E100040063D45D53403078401294683079401E4
:100E2000130707FD3307C702938707FD9305C00328
:100E30003E97E1473367F7028307C401938707FDB5
:100E4000238AE1C20307B401938641C3130707FD58
:100E50003307C7023E973367B7028307E4019387DE
:100E600007FDB387C702A380E6000307F401130759
:100E700007FDBA97B3E7B7022381F6008320C15379
:100E800003248153832441531301015482801301AD
:100E900001BE0945232E1140232C8140232A914075
:100EA000232821412326314123244141232251413A
:100EB00023206141EF00C07D916505659385F58331
:100EC000130575380D33AD3BEF0090527165130576
:100ED0000520EF00305783A581803765000013059A
:100EE0000564EF00D0623765000013050565EF006B
:100EF0005076A93EC13C3725004005469305000CBD
:100F000013050580EF00104C4164EFF06FE6930588
:100F1000F4FF0145EFF04FDAB766000093860666EE
:100F200013060002814513052003EFF0FF9C930593
:100F300004800145EFF04FD8B76600009386C6667F
:100F40004146930500020145EFF01F9B1305400643
:100F5000EF00704C1305803EEF00F04B376500004A
:100F600091451305C567A93E13054006EF00B04A39
:100F70003765000099451305456899361305400605
:100F8000EF007049376400001305C46879366DDDE1
:100F900013054006EF003048376400001305C469AC
:100FA000AD3E6DDD0565130505FAEF00D04609314C
:100FB0002A841DC58D6783D7875B1306E03F814573
:100FC000130521002310F100EFF08FA3A2850A85FD
:100FD0008536376500008A8513050560EF003053BC
:100FE000C13E7DDD1305007DEF00F042D1362A843D
:100FF0001DC58D6783D7875B1306E03F81451305C9
:1010000021002310F100EFF0AF9FA2850A850D3675
:10101000376500008A8513050560EF00504F0565B0
:1010200013058538EF00303F376400001305846BEB
:10103000ED346DDD1305401FEF00F03D3764000017
:101040001305046ED93C6DDD13054006EF00B03C7E
:10105000376400001305046FC9346DDD13054006C5
:101060004164EF00503B054B7D14138941C3376A3F
:101070000000938961808387090063956701A9391E
:1010800023800900A2850145EFF00FC30308290062
:1010900083071900038741C393060A7013060002F1
:1010A000930560091305C003EFF01F85D9B7854587
:1010B00037150040EF00F0207D3673002030B71761
:1010C00002409843B706FFF841111367170098C311
:1010D000D84337060200758FD8C39843B706F7FE8A
:1010E000FD16758F98C39843B706FCFFFD16758FE4
:1010F00098C3D843B70681FFFD16758FD8C39843B0
:10110000B70600ECFD16758F98C33707FF0098C728
:1011100023A6070202C402C69843C166558F98C32E
:10112000B716024011679C42F18F3EC6A247850761
:101130003EC4B24781E7A247E397E7FEB7170240F4
:101140009C431397E7006356070685473EC6324720
:101150008547631EF704B7170240D843B706C1FF9F
:10116000FD16D8C3D843D8C3D84313670740D8C3A4
:10117000D843758FD8C3D843C166558FD8C3984319
:10118000B7060001558F98C3984393166700E3DDB7
:1011900006FED843B7160240719BD8C3D8431367E5
:1011A0002700D8C32147DC42B18BE39EE7FE410113
:1011B000828002C669BF01A001A001A001A001A018
:1011C00001A001A001A001A001A001A001A001A017
:1011D00001A001A001A001A001A001A001A001A007
:1011E00001A001A001A001A001A001A001A001A0F7
:1011F00001A001A001A001A001A001A001A001A0E7
:1012000001A001A001A001A001A001A001A001A0D6
:1012100001A001A001A001A001A001A001A001A0C6
:1012200001A001A001A001A001A001A001A001A0B6
:1012300001A001A001A001A001A001A001A001A0A6
:1012400001A001A001A001A001A001A001A001A096
:1012500001A001A001A001A001A001A001A001A086
:1012600001A001A001A001A001A001A001A001A076
:1012700001A001A097F1FF1F9381C15F17710020AA
:10128000130141D8175500001305855297F5FF1F2C
:10129000938545D71386018263FAC5008322050032
:1012A00023A0550011059105E3EAC5FE13850182CF
:1012B0009385C1C36377B500232005001105E36D55
:1012C000B5FEFD42739002BCED4273904280B7625E
:1012D00000009382820873A0023097F2FFFF93828E
:1012E000E2D593E2320073905230EFF05FDD970267
:1012F0000000938202BA73901234730020301C41B4
:1013000041677917F98F1CC12320050023220500AE
:1013100023240500B7070240232605001387870012
:101320006317E500D8431367F700D8C3828013879B
:10133000C7016316E500D8431367070FFDB713878E
:1013400007036318E500D8438566938606F0558F3A
:10135000E9BF138747046315E500D843BD66C5BFE1
:10136000138787056316E500D843B7060F00C5B796
:101370001387C7066316E500D843B706F000C1BF60
:10138000138707086316E500D843B706000FC1B7F7
:10139000138787406319E50003A747401367F700E9
:1013A00023A2E74082801387C7416317E50003A7A4
:1013B00047401367070FEDB793870743631BF5009B
:1013C000B707024003A747408566938606F0558F0E
:1013D000C1BFB7070240138747446316E50003A760
:1013E0004740BD66EDB7138787456317E50003A740
:1013F0004740B7060F00E1BF1387C7466317E500F4
:1014000003A74740B706F000D9B71387074863170B
:10141000E50003A74740B706000F55BF13870749EC
:101420006319E50003A7474D1367F70023AAE74CAC
:1014300082801387074A6317E50003A7474D1367A8
:10144000070FEDB71387074B6319E50003A7474D57
:101450008566938606F0558FD1BF1387074CE31935
:10146000E5FC03A7474DBD66FDB71C4161773D070D
:1014700094517D8F9C45D58F9449D58FD449D58F74
:10148000944DD58FD44DD58FD451D58F9455D58FBC
:10149000D98F1CC1DC455CC19C411CC5DC415CC5CD
:1014A00082801C4189C593E717001CC18280416777
:1014B0007917F98FDDBF4CC18280484142054181D7
:1014C00082809317350063D70700B707024023A235
:1014D000A74082809317250063D70700B707024013
:1014E00023AAA74C8280B7070240C8C38280144554
:1014F0005C4158450328C502D58FD98F1849370656
:1015000000A0D98F5849D98F184DD98F584DD98FF0
:101510001851D98F5851D98F1855D98F1859B3E709
:101520000701D98F18410A073A961CC2A147639652
:10153000F6001C4293E707041CC254598C4E9C428F
:10154000CD8FCC429205CD8F8C46A205CD8FCC4657
:10155000C205CD8F8C4AD44AD205CD8FE206D58FF5
:101560005CC291676319F802145D904E9C42D18F62
:10157000D0421206D18F90462206D18F904AD44A8B
:101580005206E206D18FD58FB70600A0938646108B
:1015900036971CC38280B70700A0938747103E97F9
:1015A000B7070010FD17F5B7B70700A00A053E956D
:1015B0001C4189C593E717001CC1828037071000C2
:1015C0007917F98FD5BF9C4513F7070113F8F7007A
:1015D00001C7D8413368E80083D5050013F7F50F3C
:1015E00039C318418146854E3D4F930F80029302C7
:1015F0008004214E3396DE00B3F8C5006311160354
:101600009398260033131F011343F3FF3377E3004E
:10161000B318180133E7E800639FF70550C9850642
:10162000E39AC6FD18C11307F00F6375B704544160
:101630002146854E3D4F930F800293028004414E18
:10164000B398CE0033F715016392E8021317260012
:1016500001173313EF001343F3FFB376D3003317AF
:10166000E800D98E639DF701232A15010506E319C9
:10167000C6FD54C18280E39457FA10C94DB7E39771
:1016800057FE23281501DDB70CC982804CC9828022
:1016900023A2A1828280938741829443034705005D
:1016A00089E683472500920731A894430546639154
:1016B000C604834725000346150092076314D6002D
:1016C00093E707F8B7E600E093F7F70FBA962380A1
:1016D000F6408546935757003397E6005441ADC610
:1016E000938707048A07B7E600E0B69798C382801D
:1016F0008C4389466393D5028346150083472500B2
:101700006365D6008A06B69779BF9386E6038A0694
:10171000B69793F7F70F920765B790438D46631E10
:10172000D60083461500834725006364D6008606ED
:10173000D9BF9386C6078606E1BF94439147E39AD3
:10174000F6F88347150085B79387070661BF3717FB
:1017500002405C439146B18B6385D700A146638606
:10176000D706B7177A00938707201CC137160240A7
:101770005C4237070020130707009183BD8BBA979F
:1017800083C607001C41B3D7D7005CC15442A18275
:101790009D8ABA9683C60600B3D6D70014C55442B4
:1017A000AD829D8A369703470700B3D7E7005CC533
:1017B00058423983937637001387C18036970347A1
:1017C0000700B3D7E7021CC982805C4354434167DA
:1017D000C983F98E37F7FF1F0327C770BD8B8907B1
:1017E0001316170163480600454601476392C70276
:1017F000C94739A809476389E7023D476388E7027B
:1018000041476388E702454601476393C700C147E4
:1018100085E6B746024083A60680C18A8DC6B71604
:101820007A009386062025A00147D9B70547B5471A
:10183000C5B70147BD47E9BFB7160240D44213966A
:10184000E600E35E06FCB7163D0093860690B3877C
:10185000D7021CC101DF1C41858301BF99C5371721
:1018600002405C4B5D8D48CB8280B7170240D84B5D
:101870001345F5FF798DC8CB828099C53717024093
:101880001C4F5D8D08CF8280B7170240984F1345DB
:10189000F5FF798D88CF828099C5371702405C4F5C
:1018A0005D8D48CF8280B7170240D84F1345F5FFB2
:1018B000798DC8CF82808357050037370140930662
:1018C00007C0C207C1836300D504B7060040630C9C
:1018D000D502938606406308D502B71600401386EA
:1018E00006806302C502938606C0630ED500130707
:1018F0000740630AE50037570140930607C06304B9
:10190000D5006317E50003D7250093F7F7F8D98FC3
:1019100037170040630DE500130707406309E50032
:1019200093F7F7CF03D76500C207C183D98F231080
:10193000F50083D745002316F50283D7050023144D
:10194000F502B7370140138707C0630EE5009387A0
:101950000740630AF500B7570140138707C06304C7
:10196000E5006316F50083C785002318F502854757
:10197000231AF50082808357050265771307F7CF96
:10198000C207C183BD9BC207C1832310F5028357E1
:1019900005028356450003D88500C2071396060149
:1019A00083568501C18393F7F7FD758F83D60500B4
:1019B0004182A206558F83D6250042074183B3E6B4
:1019C00006019206D58FB7360140C207138806C0BC
:1019D000C183630E050193860640630AD500B7569E
:1019E0000140138806C0630405016311D50483D642
:1019F000A50093F7F7F703D8C5009206D58F83D6D5
:101A00004500C207C183920693F7F7FBD58FFD7699
:101A10009386F63FF18E03D6E500C207C183336695
:101A200006010A06D18E1396060141822312C500D3
:101A3000231CE50003D76500231CE5022310F502F3
:101A400082808357050091C593E717002310F500A6
:101A50008280C207C183F99BC207C183C5BF835778
:101A6000450491C52167D98F2312F5048280C607EA
:101A7000C583DDBF8357C50009C6DD8D2316B500BC
:101A8000828093C5F5FFFD8DD5BF8357050091C5B5
:101A900093E707082310F5008280C207C18393F7FC
:101AA000F7F7C207C183FDB703578501FD77938719
:101AB000F77FF98FA205CD8FC207C183231CF500E4
:101AC000828093C5F5FFC205C1812318B5008280CD
:101AD00083560501F577FD17F58F83D665003971BB
:101AE00022DC06DED58F03D7C5002318F500835608
:101AF000C500FD779387379FF58F83D645002A84ED
:101B00002EC6D58F83D68500D58F83D6A500D58FD9
:101B10002316F50083574501C207C18393F7F7CF1A
:101B2000D98F231AF50068081D31B7470140938704
:101B30000780B245631EF404A2578356C40065476C
:101B4000B387E702C206C186984163D5060406073B
:101B50000356C4004206B3D7E70213074006418686
:101B6000B3D6E702B3F7E7029206635706028E0781
:101B700093872703B3D7E70213F77700B367D7003C
:101B8000C207C1832314F400F250625421618280A1
:101B9000925765B70A076DBF920793872703B3D79C
:101BA000E702BD8BD58FE9BF81C98357C50009679F
:101BB000D98F2316F50082800357C500F977FD17EA
:101BC000F98FC5BF8357450109C6DD8D231AB500BE
:101BD000828093C5F5FFFD8DD5BF93F5F51F2312C8
:101BE000B5008280035505006D8D3335A0008280DD
:101BF00083A7818037177A0013070720B3D7E7023E
:101C000093F7F70F2385F1821307803EB387E7022E
:101C10002394F1828280B7F700E0D8438146799B14
:101C2000D8C303D781823306A70290CBD4CB984385
:101C30001367170398C3D843058B75DF9843799BC7
:101C400098C38280797122D42A8411658545110553
:101C500006D62531930700202312F10037150140E5
:101C60008D473EC44C00E147130505803EC6EFF0AA
:101C70009F9522C837440140B70708000C08130598
:101C800004803ECC02CA231E01009935130504804E
:101C90008545193FB250225445618280011126CA00
:101CA000B744014022CC4AC84EC606CEAE8932891E
:101CB000014493840480634A2401F24062444A85CB
:101CC000D2444249B24905618280930500042685C9
:101CD000113F65DDB38789008385070026850504EC
:101CE000C205C181DD3DC1BF138701811C439386BD
:101CF000C1C33E95636BD500B786002093860680EE
:101D000063E5A60008C33E858280FD57EDBF3971AB
:101D10003EDA2ED232D436D63AD842DC46DE93872B
:101D2000418122CC804326CA06CEAA8409C41C4C19
:101D300099E32285B1250C4454102686228536C6A7
:101D4000EF00B05FF2406244D24421618280011111
:101D50009387418122CC804306CEAA8519C41C4CAE
:101D600089E72AC62285292DB2451044228562447E
:101D7000F24005616F106041011126CA4AC806CEC3
:101D800022CC4EC652C4AA842E8901C51C4D91E3B3
:101D9000C52B9C4C804499E32685DD239757000092
:101DA00093874799631CF402C0408357C400A18BFA
:101DB000B1C71C48A1C7FD59294A1C4483450900E5
:101DC000FD17B1E91CC463DE07062286A9452685F6
:101DD0006922FD576308F502294535A09757000091
:101DE000938747976314F4008044C1B79757000066
:101DF00093874792E31BF4FAC04445BFA28526852A
:101E0000292C55D97D55F2406244D2444249B24909
:101E1000224A056182801CC4050963D70700184C5B
:101E200063CBE700638945011C401387170018C086
:101E30002380B70059B7228626850522E31F35F790
:101E4000D1B71C401387170018C029472380E7002B
:101E500061B793874181AA85884339BF93F5F50F10
:101E60008347050091C76393B70082800505CDBF06
:101E700091C101458280AA8703C7050085078505B2
:101E8000A38FE7FE75FB8280AA8709CA850503C771
:101E9000F5FF85077D16A38FE7FE65FB3E966393EE
:101EA000C70082808507A38F07FED5BF03470500C3
:101EB00083C7050001E791C301458280814701A8DE
:101EC0008347150013071500E5DB81473A85338703
:101ED000F5000347070075D3B306F50083C6060077
:101EE000E390E6FE85072A87D5B71971A2DC86DE66
:101EF000A6DA3284635B06009307B0081CC17D55E7
:101F0000F6506654D6540961828036869306802046
:101F10002EC42ECC231AD100814519C09305F4FF9D
:101F2000FD572EC82ECEBA862C00231BF100AA84A2
:101F3000EF003012FD576355F5009307B0089CC0C1
:101F400061D0A2472380070065BF93874181368710
:101F5000B2862E86AA85884349BF011122CC26CAA3
:101F60004AC806CE4EC6AA842E89328401C51C4DAD
:101F700091E33921974700009387C77B6319F406E3
:101F8000C0401C4C1CC48357C400A18BC9C31C484F
:101F9000BDCF1C4808409379F90F1379F90F1D8DB7
:101FA0005C486346F500A2852685652C2DE51C441A
:101FB0000505FD171CC41C401387170018C023809B
:101FC00037015C486389A7008357C400858B81CBA8
:101FD000A9476316F900A285268561240DEDF2401C
:101FE00062444A85D2444249B2490561828097479A
:101FF0000000938727766314F400804459B797470D
:10200000000093872771E31EF4F6C0449DBFA285AC
:10201000268521203DDD7D59D9B741119387418126
:1020200026C2844322C44AC006C62A892E8489C493
:102030009C4C99E32685A926974700009387876FD4
:10204000631CF402C0400317C40093170701C18347
:1020500093F68700B5EE93F607019DEEA547232082
:10206000F900136707042316E4007D55B2402244AB
:102070009244024941018280974700009387876D0F
:102080006314F4008044C1B79747000093878768C2
:10209000E31BF4FAC04445BF918B8DC74C5889C9E6
:1020A000930744046384F5004A85352B232A0402F0
:1020B0008357C4002322040093F7B7FD2316F400CE
:1020C0001C481CC08357C40093E787002316F40004
:1020D0001C4881EF8357C4001307002093F707289B
:1020E0006385E700A2854A8585218357C40013F7DD
:1020F000170005C75C4823240400B307F0401CCC3C
:102100001C480145A5F78317C40013F7070839DFFA
:1021100093E707042316F40089BF898B014791E3F5
:10212000584818C4F1BF83D7C500011122CC26CA74
:1021300006CE4AC84EC613F78700AA842E8471EFD4
:10214000D841634DE000B841634AE0000145F240E8
:102150006244D2444249B2490561828058547DD7D5
:1021600003A904009396370123A0040063DD06064B
:1021700070488357C400918B99C75C401D8E5C5892
:1021800099C33C401D8E5C540C5081462685829735
:10219000FD570357C400631DF5009440F54763E8FD
:1021A000D706B70740208507B3D7D700858BA5C3CF
:1021B0001C48232204001CC09317370163D8070072
:1021C000FD576314F5009C4091E368C84C5823A068
:1021D0002401ADDD930744046384F50026852121A5
:1021E000232A0402A5B70C5001468546268502978E
:1021F000FD572A86E31FF5F69C40A5DF75476385EA
:10220000E70059476394E70423A0240181B71367CB
:1022100007042316E4007D551DBF83A90501E3874C
:1022200009F203A905008D8B23A03501330939413B
:10223000014791E3D84918C4E35A20F11C540C50CB
:10224000CA864E86268582976349A0008357C400BC
:1022500093E707042316F4007DBFAA993309A94028
:10226000E1BF9C49B9CF011122CC06CE2A8411C509
:102270001C4D81E72EC62922B2459747000093875F
:10228000674B639BF5004C408397C50095C722853B
:102290006244F240056141BD974700009387874B38
:1022A0006394F5000C44CDB79747000093878746A9
:1022B000E39CF5FC4C44C9BFF24062440145056112
:1022C000828001458280411122C406C62A842316D9
:1022D000B5002317C5002320050023220500232471
:1022E00005002322050623280500232A0500232CA8
:1022F0000500214681451305C505EFD07FF09717EE
:1023000000009387C7F35CD097170000938727F6E8
:102310001CD497170000938767FA5CD497170000C6
:10232000938727FD00D01CD8B2402244410182800F
:1023300097050000938525F3A9A2411126C2130633
:1023400080069384F5FFB384C4024AC02E8922C458
:1023500006C693854407252E2A8401CD2320050037
:1023600023222501310508C4138684068145EFD058
:102370003FE92285B24022449244024941018280D1
:102380001C4DADE3411106C622C497070000938798
:1023900067FA1CD5938781819C4323240504232657
:1023A0000504232805046314F50085471CCD2A8401
:1023B0001D2848C02285052808C422852D2048C430
:1023C000484001469145013708440546A545E53D8D
:1023D00048440946C945C53D85471CCCB240224406
:1023E00041018280828041119387818126C284438A
:1023F0004AC006C69C4C22C42A8999E326854937DF
:10240000938484048044DC40FD1763D607009C401D
:10241000B9CF8440C5BF0317C40039E7C17785072A
:102420002322040623200400232204002324040082
:102430005CC423280400232A0400232C0400214622
:1024400081451305C405EFD0BFDB232A0402232CEA
:10245000040223240404232604042285B2402244D7
:1024600092440249410182801304840671BF914560
:102470004A85E13588C051FDB1472320F900014468
:10248000E9BF797122D44AD052CC56CA5AC85EC626
:1024900006D626D24ECE2A8AAE8A13048504014976
:1024A000054BFD5B09ECB25022544A859254025907
:1024B000F249624AD24A424BB24B4561828004449F
:1024C00083294400FD1963D409000040E1BF83D78C
:1024D000C400637BFB008397E40063877701A685D4
:1024E0005285829A3369A90093848406E1BF1971E9
:1024F000A6DAAE848395E500A2DC86DE328463DC56
:10250000050083D7C40023A0060093F7070885E7DA
:10251000930700401DA0300836C6EF001063B24696
:10252000E34105FE7247BD67F98F7977BA9793B794
:1025300017009CC2F1BF930700041CC0F6506654FC
:10254000D65401450961828083D7C500011122CC90
:1025500006CE26CA4AC8898B2E8489CF9307740475
:102560001CC01CC885475CC8F2406244D244424942
:102570000561828074003000AA84953FA2452A89B3
:102580002685312201ED8317C40013F7072069FF68
:10259000F19B93E727002316F400C9B797070000C3
:1025A000938747D99CD48357C40008C008C893E7D1
:1025B00007082316F400A2475CC8B24791CF8315E1
:1025C000E4002685EF00105B01C98357C400F19B2E
:1025D00093E717002316F4008357C4003369F9000A
:1025E0002316240151B7DDC183A7C5FF411122C4C1
:1025F00006C626C21384C5FF63D307003E94AA848F
:10260000EF00306E9387C1829C4381EF2322040048
:1026100023A681822244B2402685924441016F0064
:10262000706C637EF40014403307D4006396E700B7
:102630009843DC43369718C05CC0D9BFBA87D843EB
:1026400019C3E37DE4FE94433386D700631F8600FD
:102650001040B29694C33386D700E31DC7FA1043E7
:102660005843B29694C3D8C375B76375C400B147D5
:102670009CC04DB71040B306C4006316D700144386
:102680005843B29614C058C0C0C369B782800111C4
:1026900026CA93843500F19806CE22CC4AC84EC68D
:1026A000A104B14763F5F404B14463E4B4042A8996
:1026B000EF0030639387C18298433A8429E493877B
:1026C00001839C4399E781454A85EF00703423A834
:1026D000A182A6854A85EF00B033FD5963193507FD
:1026E000B1472320F9004A85EF00D05F29A0E3DE3F
:1026F00004FAB1471CC10145F2406244D244424948
:10270000B249056182801C40858F63CF0702AD46C8
:1027100063F6F6001CC03E9404C031A05C40631315
:10272000870223A6F1824A85EF00D05B1305B4002F
:102730009307440061993307F5405DDF3A94898F30
:102740001CC05DBF5CC3C5B72287404085BF130472
:1027500035007198E30285FCB305A4404A85EF007B
:10276000302BE31B35FBADBF01114AC803A985001F
:1027700022CC52C45AC006CE26CA4EC656C22E8499
:10278000328B368A63ED260983D7C50013F70748D5
:1027900049C704408C495848AA8AB389B4408D443B
:1027A000B384E4020947B3C4E402138716004E97CA
:1027B00063F3E400BA8493F70740D1C3A685568536
:1027C000F9352A890DE5B14723A0FA008357C400E3
:1027D0007D5593E707042316F400F2406244D24487
:1027E0004249B249224A924A024B056182800C4812
:1027F0004E86EF00103F8357C40093F7F7B793E777
:1028000007082316F4002328240144C84E99B384F2
:1028100034412320240104C4528963732A0152895C
:1028200008404A86DA85EF0030471C440145B387EB
:1028300027411CC41C403E992320240179BF2686D1
:102840005685EF00504A2A895DFD0C485685613B4C
:102850009DBF83D7C500717126D34AD14ECF06D70D
:1028600022D552CD56CB5AC95EC762C566C393F70F
:102870000708AA892E89B284B1C39C49A1E39305B4
:10288000000436C629352320A9002328A900B24612
:1028900015E1B14723A0F9007D55BA502A549A5446
:1028A0000A59FA496A4ADA4A4A4BBA4B2A4C9A4CB4
:1028B0004D61828093070004232AF90093070002E8
:1028C000A30CF1029307000302DA230DF10236CEC6
:1028D000930B5002974A0000938ACAE9054C294B92
:1028E00026848347040099C3639C7709B30C944002
:1028F000638D0C00E6862686CA854E85B535FD5764
:102900006304F51AD256E69636DA83470400638DDF
:102910000718FD579304140002D002D63ED202D409
:10292000A301010682DC83C5040015465685EF002D
:10293000B02913841400825731E513F7070109C742
:1029400013070002A301E10613F7870009C7130765
:10295000B002A301E10683C604001307A002638B43
:10296000E602B257268481462546034704009305B4
:102970001400130707FD6374E6068DC63ED61DA03E
:10298000050485B7330555413315AC00C98F3ED0DA
:10299000A28451BF724793064700184336CE63495D
:1029A00007023AD6034704009307E002631FF704C7
:1029B000034714009307A002631BF702F2470904C0
:1029C000138747009C433ACE63C107023ED235A825
:1029D0003307E04093E727003AD63ED0E1B7B3870C
:1029E000670385462E84BA9749B7FD57C5B70504D6
:1029F00002D281468147254603470400930514000F
:102A0000130707FD6378E606F1F2834504000D46DF
:102A100017450000130585D6EF00101B11CD974711
:102A200000009387A7D51D8D93070004B397A700D7
:102A3000025505045D8D2AD08345040019461745CB
:102A400000001305E5D393041400230CB102EF003A
:102A5000B01725C597D7FFFF9387C75A95E7025749
:102A6000F2471377071009CF91073ECED257D2977E
:102A70003EDABDB5B387670385462E84BA97ADBFEE
:102A80009D07E19BA107D5B77808970600009386BC
:102A9000E6CD4A860C104E8597000000E700000046
:102AA000FD572A8AE314F5FC8357C9007D5593F737
:102AB0000704E39407DE5255CDB37808970600006B
:102AC0009386C6CA4A860C104E852129D1BF1C4662
:102AD000FD171CC663DA0700184E63C5E700A94757
:102AE0006394F5006FF06FC71C422E8513871700A3
:102AF00018C22380B7008280011122CC26CA4AC89E
:102B00004EC652C406CE2A89AE893284B304D6009A
:102B10007D5A63149400014509A8834504004E863C
:102B20004A8575370504E31645FFF2406244D244F6
:102B30004249B249224A05618280357122CD26CBB5
:102B40004AC94EC706CF52C556C35AC1DEDEE2DCC3
:102B5000E6DAAA89AE843289368409C51C4D99E328
:102B6000EFF01F82974700009387C7BC639CF40C6B
:102B700083A4490083D7C400A18BFDC79C48EDC73F
:102B800093070002A304F1029307000302D2230576
:102B9000F10222C6930B5002974A0000938A8ABD25
:102BA000054C294B4A848347040099C36391770FEE
:102BB000B30C2441638D0C00E6864A86A6854E85BB
:102BC000253FFD576307F51E9256E69636D283479A
:102BD00004006380071EFD571309140002C802CECB
:102BE0003ECA02CCA309010482D4834509001546DC
:102BF0005685EF00607D13041900C24759E913F7A9
:102C0000070109C713070002A309E10413F78700AE
:102C100009C71307B002A309E1048346090013079B
:102C2000A0026380E608F2474A84814625460347AE
:102C3000040093051400130707FD6379E60AB5CA7B
:102C40003ECE85A8974700009387C7B06395F400F0
:102C500083A4890005B7974700009387A7ABE39B40
:102C6000F4F083A4C90039B7A6854E85EFF0EFBA1A
:102C700001D97D55FA406A44DA444A49BA492A4A98
:102C80009A4A0A4BF65B665CD65C0D61828005044D
:102C900019BF330555413315AC00C98F3EC8228991
:102CA000A9B7324793064700184336C6634907025F
:102CB0003ACE034704009307E002631FF70403477B
:102CC00014009307A002631BF702B247090413879D
:102CD00047009C433AC663C107023ECA35A8330782
:102CE000E04093E727003ACE3EC8E1B7B3876703D9
:102CF00085462E84BA9725BFFD57C5B7050402CA7D
:102D000081468147254603470400930514001307B5
:102D100007FD6376E606F1F2834504000D4617458C
:102D200000001305A5A54D2511CD974700009387F9
:102D3000E7A41D8D93070004B397A700424505043F
:102D40005D8D2AC883450400194617450000130508
:102D500025A3130914002304B102BD253DC197D753
:102D6000FFFF9387272A95E74247B247137707105B
:102D700009CF91073EC69257D2973ED225B5B38769
:102D8000670385462E84BA97BDBF9D07E19BA107C7
:102D9000D5B7780097060000938646D626860C089D
:102DA0004E8597000000E7000000FD572A8AE314D3
:102DB000F5FC83D7C40093F70704E39C07EA125598
:102DC00055BD780097060000938646D326860C08EA
:102DD0004E85012AD9BF797156CA9C49BA8A98454D
:102DE00022D426D24ECE52CC06D64AD05AC85EC67F
:102DF000AA892E84B284368A63D3E700BA879CC03E
:102E00000347340419C385079CC01C4093F707028D
:102E100081C79C4089079CC003290400137969007D
:102E2000631A0900130B9401FD5B5C449840998F71
:102E3000634CF9041C408346340493F70702B3360D
:102E4000D000A5EB13063404D2854E85829AFD5737
:102E50006303F5041C4011469840998B5444814407
:102E60006397C700B384E64063D3040081441C44E5
:102E700018486354F700998FBE94014969047D5B3B
:102E800063982405014509A885465A86D2854E8552
:102E9000829A631E75017D55B25022549254025994
:102EA000F249624AD24A424BB24B456182800509DF
:102EB000ADBF3307D40013060003A301C7040347C3
:102EC000540493871600A2978906A381E7049DBF47
:102ED00085462286D2854E85829AE30E65FB0509DA
:102EE00045B7797122D426D24AD04ECE06D652CCDE
:102EF00056CA5AC8B68983C6850193079006328997
:102F0000AA842E8413863504638DF60263E2D70605
:102F1000930780056387F61863EDD7006380062268
:102F200093073004638EF60A930A24042301D40421
:102F3000C9A0930730066385F60A93074006E39518
:102F4000F6FE1C40084393F6070893054500C5C6E6
:102F50001C410CC363D807001307D002B307F0402D
:102F6000A301E404974600009386068229476DA8D2
:102F7000930700076383F61663E5D7029307E0061D
:102F8000638AF6189307F006E390F6FA0C401C43A8
:102F900013F80508138547006307080608C39C4318
:102FA0008DA893075007E383F6FE93078007638A93
:102FB000F61293073007E399F6F61C43D04181459A
:102FC0009386470014C383AA07005685F52E01C5D2
:102FD0003305554148C05C401CC8A301040471A8D6
:102FE0001C43930A2404938647009C4314C3230183
:102FF000F4048547D5B793F607041C410CC3B9DA2E
:10300000C207C18781BF93F5050408C3C9D983D717
:1030100007001307F0066387E60E973600009386D5
:10302000A6762947A30104044C400CC463C50500DF
:1030300008406D9908C099E3B28A91CDB28AB3F580
:10304000E702FD1AB69583C505002380BA00B3D503
:10305000E70263FFE70AA147631EF7001C40858B68
:1030600091CB58401C4863C7E70093070003A38F28
:10307000FAFEFD1A3306564110C84E87CA86700004
:10308000A2852685893B7D5A631E450B7D55B2502E
:10309000225492540259F249624AD24A424B456143
:1030A0008280A382D504973600009386E66D0C409B
:1030B000084313F805081C411105630D080208C3F5
:1030C00013F7150001C793E505020CC04147B9FB92
:1030D0000C4093F5F5FD0CC0B1B79C4193E7070296
:1030E0009CC193078007A302F404973600009386DF
:1030F000E66A75BF13F8050408C3E30308FCC207BA
:10310000C1837DBF9736000093860668214719BFAB
:10311000AE8735B794411C43CC4913F80608138594
:1031200047006306080008C39C438CC301A808C37A
:1031300093F606049C43F5DA2390B7002328040095
:10314000B28A25BF14485686CA8526858299E30F20
:1031500045F31C40898B8DE7B2474844E359F5F2AB
:103160003E8535B785465686CA8526858299E30F02
:1031700065F1050A5C443247998FE345FAFEE9BFE1
:10318000014A930A94017D5BF5B7011122CC06CE6A
:103190002A8409C91C4D99E732C62EC4EFF04F9E10
:1031A0003246A245973700009387C7586316F60248
:1031B00050401C46FD171CC663D00704184E63C759
:1031C000E70093F7F50F29476398E70222856244E9
:1031D000F24005616FE07FD89737000093878757EB
:1031E0006314F6001044F1B79737000093878752B5
:1031F000E311F6FC504475BF1C4213F5F50F13871D
:10320000170018C22380B700F24062440561828033
:10321000411122C42A842E8523AC01C206C6EFE0E8
:10322000BFACFD576317F500938781C39C4391C3DF
:103230001CC0B240224441018280411122C42E842C
:103240008395E50006C6DD2C634905007C48AA97F6
:103250007CC8B2402244410182808357C4007D77FC
:103260007D17F98F2316F400EDB783D7C500011140
:1032700022CC26CA4AC84EC606CE93F70710AA84A7
:103280002E843289B68991C78395E5008946014627
:1032900031228357C4007D777D17F98F2316F40000
:1032A0008315E4006244F240CE864A86B249424920
:1032B0002685D24405613DA8411122C42E84839500
:1032C000E50006C6E128FD570357C400631BF5005F
:1032D000FD77FD17F98F2316F400B2402244410117
:1032E00082808567D98F2316F40068C8FDB783955F
:1032F000E50005A8411122C42A842E85B2853686B0
:1033000023AC01C206C6EFE07F99FD576317F500B5
:10331000938781C39C4391C31CC0B24022444101A6
:103320008280411122C42A842E8523AC01C206C6A4
:10333000B124FD576317F500938781C39C4391C364
:103340001CC0B240224441018280411122C42A841F
:103350002E85B28523AC01C206C63D24FD576317F6
:10336000F500938781C39C4391C31CC0B2402244A3
:1033700041018280411122C42A842E8523AC01C2DE
:1033800006C6092CFD576317F500938781C39C433C
:1033900091C31CC0B240224441018280411122C429
:1033A0002A842E85B285368623AC01C206C6CD2A74
:1033B000FD576317F500938781C39C4391C31CC0DD
:1033C000B24022444101828093F5F50F2A9663149E
:1033D000C5000145828083470500E38DB7FE0505E2
:1033E000FDB7B3C7A5008D8B3307C50081E78D47B7
:1033F00063EEC700AA876370E50A83C605008507E8
:103400008505A38FD7FEE3EAE7FE82809376350039
:10341000AA8791CA83C6050085078505A38FD7FEB5
:1034200093F63700FDB79376C7FF138606FE63F069
:10343000C70683A3050083A2450083AF850003AFC1
:10344000C50083AE050103AE450103A3850183A832
:10345000C5019385450223A0770003A8C5FF23A2D9
:10346000570023A4F70123A6E70123A8D70123AA25
:10347000C70123AC670023AE17019387470223AE31
:1034800007FF75B790419107910523AEC7FEE3EBA7
:10349000D7FEE3E4E7F6828063F3A504B386C500B4
:1034A000637FD5029345F6FF8147FD176393F500CF
:1034B00082803387F600034807003387C7002A97C6
:1034C00023000701DDB73387F50083460700330784
:1034D000F50085072300D700E317F6FE82808147B9
:1034E000E5BF8280828081E5B2856FF04F9A01113D
:1034F00022CC06CE26CA4AC84EC6328401EEEFF070
:103500008F8E0149F24062444A85D2444249B24911
:1035100005618280AE84AA8981282689E37485FEAC
:10352000A2854E85EFF0AF962A8969DDA6852286B1
:103530004D3DA6854E85EFF00F8BE9B7411122C4B2
:103540002A842E85B285368623AC01C206C6B928E8
:10355000FD576317F500938781C39C4391C31CC03B
:10356000B24022444101828083A7C5FF1385C7FF73
:1035700063D50700AA959C413E95828093078005FC
:1035800023ACF1C27D5582809307800523ACF1C244
:103590007D5582809307800523ACF1C2014582806E
:1035A0009307800523ACF1C27D5582809307800587
:1035B00023ACF1C27D5582800000000000000000B5
:1035C00000000000000000000000000000000000FB
:1035D00000000000000000000000000000000000EB
:1035E00000000000000000000000000000000000DB
:1035F00000000000000000000000000000000000CB
:1036000000000000000000000000000000000000BA
:1036100000000000000000000000000000000000AA
:10362000000000000000000000000000000000108A
:1036300010101010100000101000000000000028F2
:1036400028282800000000000000000000000012F0
:1036500012167F2424FE28484800000000000808B5
:103660003E4948683E0B09493E08080000000060DA
:103670009090620C30460909060000000000001C12
:1036800020203030494545623D0000000000001018
:1036900010101000000000000000000000000C08E6
:1036A000081010101010100808040000000030105E
:1036B0001008080808080810103000000000000872
:1036C000493E1C6B080000000000000000000000E4
:1036D00000101010FE10101000000000000000008C
:1036E000000000000000001818102000000000007A
:1036F0000000000000380000000000000000000092
:103700000000000000000018180000000000000287
:103710000404040808101020202040000000001CB1
:1037200022414149414141221C0000000000001893
:1037300028080808080808083E0000000000003EAD
:1037400043010102060C10207F0000000000003E33
:103750004101031C030101433E000000000000067C
:103760000A1A1222427F0202020000000000007EBC
:1037700040407C42010101423C0000000000001E6C
:103780003160405E634141231E0000000000007F65
:103790000302040408081010200000000000003E8E
:1037A0004141413E634141633E0000000000003C56
:1037B000624141633D0103463C00000000000000FF
:1037C0000000181800000018180000000000000099
:1037D0000000181800000018181020000000000059
:1037E00000010E3840380E0100000000000000000B
:1037F00000007F00007F00000000000000000000CB
:103800000040380E010E3840000000000000003873
:1038100044040C1810100010100000000000001EDE
:10382000332147494949494720300E00000000082C
:1038300014141414223E2241410000000000007EB6
:103840004141417E434141437E0000000000001E93
:1038500021404040404040211E0000000000007C0C
:1038600042414141414141427C0000000000007F53
:103870004040407F404040407F0000000000007F0B
:103880004040407F40404040400000000000001E9B
:1038900021404040434141211E0000000000004102
:1038A0004141417F41414141410000000000007C15
:1038B00010101010101010107C0000000000001CF0
:1038C000040404040404044438000000000000421E
:1038D00044485070784844464200000000000040D0
:1038E00040404040404040407F00000000000063F6
:1038F00063555555494141414100000000000061B8
:103900006151514949454543430000000000001CF6
:1039100022414141414141221C0000000000007E43
:10392000434141437E404040400000000000001CF5
:1039300022414141414141221E0602000000007E19
:10394000434141437C424141400000000000001ED1
:10395000614040300E0101433E000000000000FEC7
:103960001010101010101010100000000000004186
:1039700041414141414141633E000000000000419E
:1039800041222222141414140800000000000081B7
:1039900081815A5A5A66666666000000000000413E
:1039A0002214140814142222410000000000008296
:1039B0004444283810101010100000000000007F50
:1039C00003020408081020607F00000000001C10A3
:1039D0001010101010101010101C000000000040FB
:1039E00020202010100808040404020000003808F9
:1039F0000808080808080808083800000000001037
:103A00002844C60000000000000000000000000084
:103A10000000000000000000000000FF003010085F
:103A20000000000000000000000000000000000096
:103A3000001C22023E4242463A0000000000404084
:103A4000407C6442424242645C000000000000008E
:103A5000001C2240404040221C00000000000202E6
:103A6000023E2642424242263A0000000000000088
:103A7000003C26427E4040221C00000000000C104A
:103A8000107C10101010101010000000000000003A
:103A9000003A2642424242263A02221C000040409E
:103AA000405C62424242424242000000000010106C
:103AB00000701010101010107C00000000000808AA
:103AC0000038080808080808080808700000404086
:103AD00040444850704848444200000000007010C4
:103AE00010101010101010100E0000000000000048
:103AF000007E494949494949490000000000000049
:103B0000005C62424242424242000000000000006B
:103B1000003C6642424242663C0000000000000059
:103B2000005C6442424242647C404040000000002D
:103B3000003A2642424242263A02020200000000B7
:103B4000003C322020202020200000000000000047
:103B5000003C4240700E02423C0000000000001099
:103B6000107E1010101010100E0000000000000059
:103B700000424242424242463A0000000000000039
:103B800000424224242418181800000000000000FD
:103B90000081815A5A5A5A24240000000000000073
:103BA00000422418181824244200000000000000DD
:103BB00000422224241418180808103000000000C5
:103BC000007E0204081020407E00000000000C105F
:103BD000101010106010101010100C0000001010C9
:103BE00010101010101010101010101000006010A5
:103BF000101010100C1010101010600000000000C9
:103C000000000000000000000000000000000000B4
:103C100000000000000000000000000000000000A4
:103C20000000000000000000000000000000000094
:103C30000000000006000600060006000600060060
:103C40000600060006000600000000000600060050
:103C5000060000000000000000000000000000005E
:103C600000000000198019801980198019801980BE
:103C70000000000000000000000000000000000044
:103C80000000000000000000000000000000000034
:103C900000000000066004400CC00CC07FF07FF004
:103CA000088019801980FFE0FFE033003300220014
:103CB00022000000000000000000000000000000E2
:103CC0000000020002000F801FC03A4032003200A4
:103CD0003A001F0007C002E00260026022E03FC01D
:103CE0001F8002000200020000000000000000002F
:103CF0000000000078004800CC00CC00CC00484018
:103D000079C00E0073C00240066006600660024083
:103D100003C00000000000000000000000000000E0
:103D2000000000000F801F801800180018000C0011
:103D30001E003630633063B061A060E030C03F6089
:103D40000E700000000000000000000000000000F5
:103D5000000000000600060006000600060006003F
:103D60000000000000000000000000000000000053
:103D70000000000000000000000000000000000043
:103D800000000100020002000600060004000C0012
:103D90000C000C000C000C000C000C0004000600D1
:103DA0000600020002000100000000000000000008
:103DB00000000800040004000600060002000300E2
:103DC00003000300030003000300030002000600D9
:103DD00006000400040008000000000000000000CD
:103DE0000000000004000400444035800E000E0076
:103DF0003580444004000400000000000000000082
:103E000000000000000000000000000000000000B2
:103E1000000000000000000006000600060006008A
:103E200006007FE07FE006000600060006000600B0
:103E30000000000000000000000000000000000082
:103E40000000000000000000000000000000000072
:103E50000000000000000000000000000600060056
:103E6000060006000C000C0000000000000000002E
:103E70000000000000000000000000000000000042
:103E8000000000001F001F000000000000000000F4
:103E90000000000000000000000000000000000022
:103EA0000000000000000000000000000000000012
:103EB00000000000000000000000000006000600F6
:103EC00006000000000000000000000000000000EC
:103ED00000000000006000C000C0018001800300FD
:103EE00003000600060006000C000C001800180075
:103EF0003000300060000000000000000000000002
:103F0000000000001E003F80318071C060C060C0B2
:103F100066C066C060C060C060C071C031803F8054
:103F20000E00000000000000000000000000000083
:103F30000000000007001F001B0003000300030037
:103F400003000300030003000300030003001FE05D
:103F50001FE0000000000000000000000000000062
:103F6000000000003F007F8041C000C000C000C0D2
:103F700001C00180030006000C00180030007FC063
:103F80007FC00000000000000000000000000000F2
:103F9000000000003F007F8041C000C000C001C0A1
:103FA0000F800F80018000C000C000C041C07F8032
:103FB0003F000000000000000000000000000000C2
:103FC0000000000003800380078005800D800980C9
:103FD00019803180318061807FE07FE00180018045
:103FE0000180000000000000000000000000000050
:103FF000000000003F803F803000300030003F0074
:104000003F8021C000C000C000C000C041807F8050
:104010003E00000000000000000000000000000062
:10402000000000000F001F8038803000700060002A
:104030006F007F8071C060C060C060C031C03F80D1
:104040001F00000000000000000000000000000051
:10405000000000007FC07FC001800180018003005C
:10406000030003000600060006000C000C000C0014
:104070001800000000000000000000000000000028
:10408000000000001F003F8071C060C060C0318030
:104090001F003F80318060C060C060C071C03F8041
:1040A0001F000000000000000000000000000000F1
:1040B000000000001F003F80718060C060C060C0D1
:1040C00071C03FC01EC000C000C0018023803F00FF
:1040D0001E000000000000000000000000000000C2
:1040E00000000000000000000000000006000600C4
:1040F00006000000000000000000000006000600AE
:1041000006000000000000000000000000000000A9
:104110000000000000000000000000000600060093
:10412000060000000000000000000000060006007D
:10413000060006000C000C0000000000000000005B
:1041400000000000000000000000002001E00780E7
:104150001E00700070001E00078001E000200000BB
:10416000000000000000000000000000000000004F
:10417000000000000000000000000000000000003F
:104180007FE07FE0000000007FE07FE000000000B3
:10419000000000000000000000000000000000001F
:1041A00000000000000000000000400078001E0039
:1041B000078000E000E007801E007800400000005B
:1041C00000000000000000000000000000000000EF
:1041D000000000000F801FC01060006000E001C000
:1041E000038006000600060000000000060006002E
:1041F00006000000000000000000000000000000B9
:10420000000000000000078018C03060306023E02C
:10421000626066606660666066606660626033E029
:10422000300018001C0007800000000000000000A3
:1042300000000000060006000F000F000F001F80A6
:104240001980198019803FC03FC030C030C0606005
:10425000606000000000000000000000000000009E
:10426000000000007F007F8061C060C060C061C04E
:104270007F807F8060C060606060606060E07FC061
:104280007F8000000000000000000000000000002F
:104290000000000007C01FE0382030006000600010
:1042A00060006000600060006000300038201FE0A7
:1042B00007C0000000000000000000000000000037
:1042C000000000007E007F8061C060C060606060B0
:1042D0006060606060606060606060C061C07F80DE
:1042E0007E00000000000000000000000000000050
:1042F000000000007FE07FE0600060006000600080
:104300007FE07FE0600060006000600060007FE0B0
:104310007FE000000000000000000000000000003E
:10432000000000007FE07FE060006000600060004F
:104330007FC07FC0600060006000600060006000BF
:10434000600000000000000000000000000000000D
:10435000000000000F801FC0384030006000600087
:10436000600061E061E060606060306038601FE0C4
:104370000F800000000000000000000000000000AE
:1043800000000000606060606060606060606060AD
:104390007FE07FE0606060606060606060606060DF
:1043A000606000000000000000000000000000004D
:1043B000000000003FC03FC00600060006000600E7
:1043C00006000600060006000600060006003FC0C4
:1043D0003FC00000000000000000000000000000DE
:1043E000000000001F801F8001800180018001808B
:1043F00001800180018001800180018043807F0075
:104400003E0000000000000000000000000000006E
:1044100000000000606060C06180630066006C00A6
:104420007C007E00760063006380618060C060E095
:1044300060600000000000000000000000000000BC
:10444000000000006000600060006000600060002C
:1044500060006000600060006000600060007FE05D
:104460007FE00000000000000000000000000000ED
:104470000000000070E070E070E079E06960696061
:104480006F6066606660666060606060606060600B
:10449000606000000000000000000000000000005C
:1044A0000000000070607060786078606C606C6024
:1044B0006460666062606360636061E061E060E068
:1044C00060E00000000000000000000000000000AC
:1044D000000000000F003FC030C070E0606060600E
:1044E0006060606060606060606070E030C03FC0CD
:1044F0000F000000000000000000000000000000AD
:10450000000000007F807FC060E0606060606060ED
:1045100060E07FC07F80600060006000600060003D
:10452000600000000000000000000000000000002B
:10453000000000000F003FC030C070E060606060AD
:104540006060606060606060606070E030C01F80CC
:104550000F00018000C0008000000000000000008B
:10456000000000007F007FC060E06060606060600D
:1045700060C07FC07F8061C060C06060606060308C
:10458000603000000000000000000000000000009B
:10459000000000001F803FC070406000600070009D
:1045A0003E001F8001C000600060006040E07FC0EE
:1045B0003F8000000000000000000000000000003C
:1045C00000000000FFF0FFF00600060006000600F5
:1045D00006000600060006000600060006000600AB
:1045E00006000000000000000000000000000000C5
:1045F000000000006060606060606060606060603B
:1046000060606060606060606060606070E03FC0DB
:104610001F800000000000000000000000000000FB
:10462000000000006060606030C030C030C030C04A
:104630001980198019801F800F000F000F000600DD
:104640000600000000000000000000000000000064
:1046500000000000C030C030C0306060666066603E
:104660006F606F606960696039C039C039C030C03F
:1046700030C000000000000000000000000000004A
:104680000000000070E030C039C019800F000F003A
:10469000060006000F000F001B80198031C030C0DB
:1046A00060E00000000000000000000000000000CA
:1046B00000000000E070606030C030C019801F80D2
:1046C0000F000600060006000600060006000600B1
:1046D00006000000000000000000000000000000D4
:1046E000000000007FE07FE000C001C00180030007
:1046F000070006000E000C001800380030007FE0B4
:104700007FE000000000000000000000000000004A
:10471000000007800780060006000600060006006D
:104720000600060006000600060006000600060059
:10473000060006000780078000000000000000005F
:1047400000000000600030003000180018000C006D
:104750000C00060006000600030003000180018033
:1047600000C000C000600000000000000000000069
:1047700000000F000F00030003000300030003000C
:104780000300030003000300030003000300030011
:10479000030003000F000F000000000000000000F5
:1047A0000000000007000F800D8018C030606030EE
:1047B00000000000000000000000000000000000F9
:1047C00000000000000000000000000000000000E9
:1047D00000000000000000000000000000000000D9
:1047E00000000000000000000000000000000000C9
:1047F0000000000000000000FFF0FFF000000000DB
:1048000018000C000600030000000000000000007B
:104810000000000000000000000000000000000098
:104820000000000000000000000000000000000088
:104830000000000000000000000000001F003F809A
:1048400021C000C01FC03FC070C060C061C07FC039
:104850001CC000000000000000000000000000007C
:104860000000600060006000600060006F007F80FA
:10487000718060C060C060C060C060C071807F80B7
:104880006F000000000000000000000000000000B9
:104890000000000000000000000000000F003F804A
:1048A00030806000600060006000600030803F8009
:1048B0000F000000000000000000000000000000E9
:1048C000000000C000C000C000C000C01EC03FC04B
:1048D00031C060C060C060C060C060C031C03FC057
:1048E0001EC00000000000000000000000000000EA
:1048F0000000000000000000000000000F003F80EA
:1049000031C060C07FC07FC06000600030403FC0E9
:104910000F80000000000000000000000000000008
:10492000000001E003E00600060006003FE03FE073
:104930000600060006000600060006000600060047
:104940000600000000000000000000000000000061
:104950000000000000000000000000001EC03FC07A
:1049600031C060C060C060C060C060C031C03FC0C6
:104970001EC000C021C03F801F00000000000000DA
:1049800000006000600060006000600067007F80E1
:1049900071C060C060C060C060C060C060C060C006
:1049A00060C00000000000000000000000000000E7
:1049B0000000060006000000000000003E003E006F
:1049C00006000600060006000600060006007FE05E
:1049D0007FE0000000000000000000000000000078
:1049E0000000030003000000000000001F001F0083
:1049F000030003000300030003000300030003009F
:104A00000300030003003E003C0000000000000023
:104A100000006000600060006000600061C06380B2
:104A200067006E007C007C00760067006300618098
:104A300061C0000000000000000000000000000055
:104A40000000FC00FC000C000C000C000C000C0032
:104A50000C000C000C000C000C000C000E0007C039
:104A600003C0000000000000000000000000000083
:104A70000000000000000000000000006DC07FE0AA
:104A800066606660666066606660666066606660F6
:104A90006660000000000000000000000000000050
:104AA00000000000000000000000000067007F80A0
:104AB00071C060C060C060C060C060C060C060C0E5
:104AC00060C00000000000000000000000000000C6
:104AD0000000000000000000000000001F003F80F8
:104AE000318060C060C060C060C060C031803F8005
:104AF0001F00000000000000000000000000000097
:104B00000000000000000000000000006F007F8037
:104B1000718060C060C060C060C060C071807F8014
:104B20006F00600060006000600000000000000096
:104B30000000000000000000000000001EC03FC098
:104B400031C060C060C060C060C060C031C03FC0E4
:104B50001EC000C000C000C000C000000000000077
:104B60000000000000000000000000000CE00DF05C
:104B70000F100E000C000C000C000C000C000C00C0
:104B80000C00000000000000000000000000000019
:104B90000000000000000000000000001F803FC077
:104BA000604060007F001F8001C000C041C07F8066
:104BB0003F000000000000000000000000000000B6
:104BC0000000000000000C000C000C007FC07FC043
:104BD0000C000C000C000C000C000C000C000FC0B2
:104BE00007C00000000000000000000000000000FE
:104BF00000000000000000000000000060C060C075
:104C000060C060C060C060C060C060C071C03FC0B4
:104C10001CC00000000000000000000000000000B8
:104C200000000000000000000000000060C071C033
:104C3000318031803B801B001B001B000E000E00EA
:104C40000E00000000000000000000000000000056
:104C5000000000000000000000000000C030C03074
:104C600060606660666066603FC039C039C039C048
:104C700030C0000000000000000000000000000044
:104C800000000000000000000000000071C0318042
:104C90001B001F000E000E000E001F001B003180C5
:104CA00071C00000000000000000000000000000D3
:104CB00000000000000000000000000060C0318023
:104CC000318031801B001B001F000E000E0006000B
:104CD0000C000C000C003800380000000000000040
:104CE0000000000000000000000000007FC07FC046
:104CF0000380030007000E001C00180030007FC076
:104D00007FC0000000000000000000000000000064
:104D1000000003C007C006000600060006000600EB
:104D200006003C003C000E000600060006000600DF
:104D30000600060007C003C00000000000000000DD
:104D40000000060006000600060006000600060039
:104D50000600060006000600060006000600060023
:104D6000060006000600060006000600000000001F
:104D700000003C003E00060006000600060006009B
:104D8000060003C003C00700060006000600060078
:104D9000060006003E003C0000000000000000008D
:104DA0000000000000000000000000000000000003
:104DB00000000000000000000000000000000000F3
:104DC00000000000000000000000000000000000E3
:104DD00000000000000000000000000000000000D3
:104DE000000000000000000001C001C001C001C0BF
:104DF00001C001C001C001C001C001C001C001C0AB
:104E000001C001C000000000000001C001C001C0DD
:104E10000000000000000000000000000000000092
:104E200000000000000000000630063006300630AA
:104E3000063006300630063000000000000000009A
:104E40000000000000000000000000000000000062
:104E50000000000000000000000000000000000052
:104E6000000000000000018C038C030C03180318E1
:104E700003187FFF7FFF063006300E300C700C6089
:104E8000FFFEFFFE186018C018C018C030C0318087
:104E90000000000000000000000000000000000012
:104EA00000000000000000800080008003F00FFC84
:104EB0000E8C1C801C801C801C800E800FE003F870
:104EC00000FC009E008E008E008E109C1FF807F0E4
:104ED00000800080008000800000000000000000D2
:104EE00000000000000000003C007E00E700C3005E
:104EF000C300C300E7007E1C3C7801C007003C787B
:104F000070FC01CE01860186018601CE00FC00788E
:104F10000000000000000000000000000000000091
:104F2000000000000000000007C00FE01E201C0071
:104F30001C001C001E000E000F001F003F8333C327
:104F400071E370E370F6707E783C3C3E1FEE07CF55
:104F50000000000000000000000000000000000051
:104F6000000000000000000001800180018001803D
:104F7000018001800180018000000000000000002D
:104F80000000000000000000000000000000000021
:104F90000000000000000000000000000000000011
:104FA00000000000000000300060006000E000C071
:104FB00001C001C00180038003800380038003805F
:104FC0000380038003800380018001C001C000C012
:104FD00000E0006000600030000000000000000001
:104FE00000000000000006000300030003800180B1
:104FF00001C001C000C000E000E000E000E000E00F
:1050000000E000E000E000E000C001C001C001805D
:105010000380030003000600000000000000000001
:105020000000000000000000018001802184399C04
:105030000FF003C003C00FF0399C21840180018070
:105040000000000000000000000000000000000060
:105050000000000000000000000000000000000050
:105060000000000000000000000000000000000040
:105070000180018001800180018001807FFE7FFE30
:10508000018001800180018001800180000000001A
:105090000000000000000000000000000000000010
:1050A0000000000000000000000000000000000000
:1050B00000000000000000000000000000000000F0
:1050C000000000000000000001C001C001C001C0DC
:1050D0000180038003800300000000000000000046
:1050E00000000000000000000000000000000000C0
:1050F000000000000000000000000000000007F0B9
:1051000007F00000000000000000000000000000A8
:10511000000000000000000000000000000000008F
:10512000000000000000000000000000000000007F
:10513000000000000000000000000000000000006F
:105140000000000000000000038003800380038053
:10515000000000000000000000000000000000004F
:105160000000000000000000001C00380038007043
:105170000070007000E000E001C001C00380038007
:105180000380070007000E000E001C001C001C001E
:10519000380038007000000000000000000000002F
:1051A000000000000000000003E00FF80E381C1C97
:1051B0001C1C380E380E380E39CE39CE39CE380E8A
:1051C000380E380E380E1C1C1C1C0E380FF803E06D
:1051D00000000000000000000000000000000000CF
:1051E000000000000000000003E00FE00CE000E021
:1051F00000E000E000E000E000E000E000E000E0AF
:1052000000E000E000E000E000E000E00FFE0FFE44
:10521000000000000000000000000000000000008E
:1052200000000000000000000FE03FF8383C201EA6
:10523000000E000E000E000E001E003C007C00F868
:1052400000F001E003C007000E001C003FFE3FFE1F
:10525000000000000000000000000000000000004E
:10526000000000000000000007F01FF8181C000EEE
:10527000000E000E000E003C07F007F0003C001C82
:10528000000E000E000E000E001E303C3FF80FE036
:10529000000000000000000000000000000000000E
:1052A0000000000000000000007000F001F001F0BC
:1052B0000370077006700C700C70187038703070C6
:1052C00060707FFE7FFE00700070007000700070E4
:1052D00000000000000000000000000000000000CE
:1052E00000000000000000001FFC1FFC1C001C0050
:1052F0001C001C001FE01FF8103C001C000E000EDC
:10530000000E000E000E000E001C203C3FF81FE0B7
:10531000000000000000000000000000000000008D
:10532000000000000000000001F807FC0F041E0050
:105330001C001C00380039F03BF83E3C3C1E380E87
:10534000380E380E380E180E1C1C0E3C0FF803F0E9
:10535000000000000000000000000000000000004D
:1053600000000000000000003FFE3FFE001E001C89
:10537000001C0038003800380070007000F000E0B9
:1053800000E001E001C001C003800380038007004A
:10539000000000000000000000000000000000000D
:1053A000000000000000000007F01FFC1C1C380E6D
:1053B000380E380E380E1C1C07F00FF81E3C1C1C53
:1053C000380E380E380E380E3C1E1E3C0FF807F013
:1053D00000000000000000000000000000000000CD
:1053E000000000000000000007E00FF81E383C1C21
:1053F000380C380E380E380E380E3C1E1E3E0FEE9E
:1054000007CE000E001C001C003C10781FF00FC0DF
:10541000000000000000000000000000000000008C
:10542000000000000000000000000000000000007C
:105430000000000003800380038003800000000060
:105440000000000000000000038003800380038050
:10545000000000000000000000000000000000004C
:10546000000000000000000000000000000000003C
:105470000000000003800380038003800000000020
:105480000000000000000000038003800380038010
:1054900003000700070006000000000000000000F5
:1054A00000000000000000000000000000000000FC
:1054B0000002001E007E01F80FC03F007800780057
:1054C0003F000FC001F8007E001E00020000000037
:1054D00000000000000000000000000000000000CC
:1054E00000000000000000000000000000000000BC
:1054F00000000000000000007FFE7FFE00000000B2
:1055000000007FFE7FFE00000000000000000000A1
:10551000000000000000000000000000000000008B
:10552000000000000000000000000000000000007B
:10553000400078007E001F8003F000FC001E001E6B
:1055400000FC03F01F807E00780040000000000097
:10555000000000000000000000000000000000004B
:10556000000000000000000003E00FF81C38101CD1
:10557000001C003C003C007800F001E003C0038008
:105580000380038003800000000003800380038009
:10559000000000000000000000000000000000000B
:1055A0000000000000000000000001F807FC0E0EE3
:1055B0001C0618033003307B61FF618763036303BC
:1055C000630363036303618771FF307B300018005E
:1055D0001C000F0403FC00FC0000000000000000A1
:1055E000000000000000000001C003E003E003E051
:1055F00003E00770077007700F780E380E380E380A
:105600001FFC1FFC1C1C380E380E380E780F70075C
:10561000000000000000000000000000000000008A
:1056200000000000000000003FE03FF83838381C60
:10563000381C381C381C38383FF03FF0383C381CD8
:10564000380E380E380E380E381E383C3FF83FE022
:10565000000000000000000000000000000000004A
:10566000000000000000000001F807FC0F0C1E0401
:105670001C001C00380038003800380038003800A2
:10568000380038001C001C001E040F0C07FC01F839
:10569000000000000000000000000000000000000A
:1056A00000000000000000003FC03FF03878381CC8
:1056B000381C380C380E380E380E380E380E380EAE
:1056C000380E380E380C381C381C38783FF03FC084
:1056D00000000000000000000000000000000000CA
:1056E00000000000000000001FFE1FFE1C001C0048
:1056F0001C001C001C001C001FFC1FFC1C001C00CC
:105700001C001C001C001C001C001C001FFE1FFEB7
:105710000000000000000000000000000000000089
:1057200000000000000000001FFE1FFE1C001C0007
:105730001C001C001C001C001FFC1FFC1C001C008B
:105740001C001C001C001C001C001C001C001C0079
:105750000000000000000000000000000000000049
:10576000000000000000000001F807FC0F0C1E0400
:105770001C001C00380038003800387E387E380E97
:10578000380E380E1C0E1C0E1C0E0F1E07FE01F8E4
:105790000000000000000000000000000000000009
:1057A0000000000000000000380E380E380E380EE1
:1057B000380E380E380E380E3FFE3FFE380E380ECB
:1057C000380E380E380E380E380E380E380E380EA9
:1057D00000000000000000000000000000000000C9
:1057E00000000000000000001FFC1FFC01C001C001
:1057F00001C001C001C001C001C001C001C001C0A1
:1058000001C001C001C001C001C001C01FFC1FFCDC
:105810000000000000000000000000000000000088
:10582000000000000000000007F807F8003800380A
:1058300000380038003800380038003800380038A8
:105840000038003800380038203830703FF00FC082
:105850000000000000000000000000000000000048
:1058600000000000000000003807380E381C3838EF
:10587000387038E039C03B803F803FC03FC03DE0DA
:1058800038F038703878383C381C381E380F3807F4
:105890000000000000000000000000000000000008
:1058A00000000000000000001C001C001C001C0088
:1058B0001C001C001C001C001C001C001C001C0008
:1058C0001C001C001C001C001C001C001FFE1FFEF6
:1058D00000000000000000000000000000000000C8
:1058E0000000000000000000781E781E7C3E7C3E18
:1058F0007C3E766E766E766E724E73CE73CE718E01
:10590000718E700E700E700E700E700E700E700E26
:105910000000000000000000000000000000000087
:1059200000000000000000003C0E3C0E3E0E3E0E4B
:105930003E0E3B0E3B0E3B8E398E398E38CE38CE26
:1059400038EE386E386E383E383E383E381E381ED7
:105950000000000000000000000000000000000047
:10596000000000000000000003E00FF80E381C1CCF
:105970001C1C380E380E380E380E380E380E380E05
:10598000380E380E380E1C1C1C1C0E380FF803E0A5
:105990000000000000000000000000000000000007
:1059A00000000000000000001FF01FFC1C1E1C0F68
:1059B0001C071C071C071C071C0F1C1E1FFC1FF0CC
:1059C0001C001C001C001C001C001C001C001C00F7
:1059D00000000000000000000000000000000000C7
:1059E000000000000000000003E00FF80E381C1C4F
:1059F0001C1C380E380E380E380E380E380E380E85
:105A0000380E380E380E1C1C1C1C0E380FF803E024
:105A100000700038001C00100000000000000000B2
:105A200000000000000000003FE03FF03878383C04
:105A3000381C381C381C381C381C38383FF03FE004
:105A400038F038783838383C381C381E380E380F63
:105A50000000000000000000000000000000000046
:105A6000000000000000000003F00FFC1E0C3C04CE
:105A70003800380038003E001FC00FF803FC003C1F
:105A8000001E000E000E000E201E383C3FF80FE0F6
:105A90000000000000000000000000000000000006
:105AA00000000000000000007FFF7FFF01C001C078
:105AB00001C001C001C001C001C001C001C001C0DE
:105AC00001C001C001C001C001C001C001C001C0CE
:105AD00000000000000000000000000000000000C6
